{
  "contractName": "Todo",
  "abi": [
    {
      "constant": true,
      "inputs": [],
      "name": "taskcnt",
      "outputs": [
        {
          "internalType": "uint256",
          "name": "",
          "type": "uint256"
        }
      ],
      "payable": false,
      "stateMutability": "view",
      "type": "function"
    }
  ],
  "bytecode": "0x608060405260008055348015601357600080fd5b506080806100226000396000f3fe6080604052348015600f57600080fd5b506004361060285760003560e01c806339dbcfe814602d575b600080fd5b60336045565b60408051918252519081900360200190f35b6000548156fea265627a7a72315820749a4b74d5f95451966b0293d5ab97bb1cf5d64eee59c970f842950922d199d564736f6c63430005100032",
  "source": "pragma solidity ^0.5.0;\r\n\r\ncontract Todo{\r\n    uint public taskcnt = 0;\r\n}",
  "sourcePath": "D:\\tasks\\eth-todo\\contracts\\Todo.sol",
  "compiler": {
    "name": "solc",
    "version": "0.5.16+commit.9c3226ce.Emscripten.clang"
  },
  "schemaVersion": "3.0.23",
  "updatedAt": "2021-11-22T16:31:59.174Z",
  "networkType": "ethereum",
  "devdoc": {
    "methods": {}
  },
  "userdoc": {
    "methods": {}
  }
}